:10138900759D7FE4F5BDF5BE75BCC07FE87E03029F
:02139900134EF1
:1010A100E4F564F565EF44C8F5BC7F017E001213D9
:1010B1004EE5BC30E4FB53BCEFE59730E512E5BDEE
:1010C1005403756400F565ADBEF564EDF5658021E9
:1010D100AFBD7564008F65AE64E5657802C333CE3C
:1010E10033CED8F9FFE5BE5403FDEEF564EF4DF5BF
:0510F10065AE64AF656F
:0110F60022D7
:040003007F02DFFE9B
:0100070022D6
:0813AC007F127EEBDEFEDFFC88
:0113B4002216
:10134E00AD07AC06ED1DAE0470011C4E6005121308
:04135E00AC80F1224C
:10136200AD07AC06ED1DAE0470011C4E6005120007
:041372000380F122E1
:10126800102200000000004D00640032001400004D
:1012780000000632000000010002C1000121000246
:1012880046000001520001530002480000024C00D1
:0512980000024E0002FF
:10131A00E4F594F593F592F591F596F595F5B2F510
:0A132A00B1F5B4F5B3F5CAF5C92218
:041025008F548D5502
:101029007C007D64AF03AE021203F68F5A7C007D0B
:101039000AAF03AE021203F67C007D0A1203F68D95
:101049005BAE02AF037C007D0A1203F68D5CAE58DD
:10105900AF597C007D641203F68F5DAE58AF597CA1
:10106900007D0A1203F67C007D0A1203F6AB05AE79
:1010790058AF597C007D0A1203F6AE05E5542414D5
:10108900FF855C61E5552411F562855D638B648E8E
:0810990065AB5BAD5A02057660
:10137600438E805389F0E4F58A758CB8C28DD28C81
:03138600D2A922C7
:03000B0002139B42
:10139B00C0E00521E52164647004F521D200D0E0A2
:0113AB00320F
:100F0900D3E5459409748094805016AE46AF477C6A
:100F1900007D0A1203E4EF2545F547EC3EF54680CE
:100F29005EE54524F5601914602914602D146032BA
:100F390014603724057048E552045407F552803F80
:100F4900E5532401FFE433FE7C007D031203F68D93
:100F590053802CE4F52EF52F8025752E00752F0171
:100F6900801D752E00752F028015E540045401F58A
:100F790040600CE55225E02422F8A64608A647D38E
:100F8900E54794E7E54694034005E4F546F547222D
:10129E00C3E5319541F557E5309540F556D3E55701
:1012AE009405E5566480948040077FF47E01121108
:1012BE007AC3E55794FBE5566480947F5006E4FFAD
:0412CE00FE12117A81
:0112D20022F9
:100D6B00AE28AF297C007D641203F6AC06AD07E418
:100D7B0012032A8F448E438D428C41AE2AAF2B7CBB
:100D8B00007D641203F6AC06AD07E412032A8F3F15
:100D9B008E3E8D3D8C3CAE2CAF2D7C007D641203C2
:100DAB00F6AC06AD07E412032A8F3B8E3A8D398CD5
:100DBB0038854C4E854D4F85484C85494DC3E527AD
:100DCB009537F549E5269536F548C3E549954DFD2B
:100DDB00E548954CFC12032AAB44AA43A942A8410F
:100DEB00120106C004C005C006C007AC50AD51ECE3
:100DFB0012032AD003D002D001D000120015C00478
:100E0B00C005C006C007AC48AD49EC12032AAB3F86
:100E1B00AA3EA93DA83C120106D003D002D001D0B6
:100E2B0000120015C004C005C006C007E54D25E043
:100E3B00FFE54C33FEC3E5499FFFE5489EFEE54FBA
:100E4B002FFDE54E3EFC12032AAB3BAA3AA939A86B
:100E5B0038120106D003D002D001D00012001512B7
:060E6B0003638E508F515D
:010E7100225E
:1011B800120D6B7C007D0A1203E4EF2464F555E4FC
:1011C8003EF554E52E701FE52F14601114601124AC
:1011D800027013E531240AFFE43530800B02129EB9
:0C11E800AF55AE548003E4FFFE12117AF4
:0111F40022D8
:100B4C00200003020C5DC2007F061210A18E548F90
:100B5C00557F061210A18E568F577F061210A1E5F5
:100B6C00552557CDE5543556CD2FFFED3EFE7C0077
:100B7C007D031203F6AD07AC06E412032AE4FBFA7C
:100B8C0079A07840120106E4FBFA798078441202CD
:100B9C000F8F5B8E5A8D598C587FAE7E477D557C5E
:100BAC0041AB5BAA5AA959A8581201067B337A3378
:100BBC00795F78C11200158F5F8E5E8D5D8C5C7FC6
:100BCC00AE7E477D617C41AB5BAA5AA959A85812ED
:100BDC0001067B0A7AD7795378C11200158F638E80
:100BEC00628D618C60E4FFFEFDFCAB63AA62A961BF
:100BFC00A8601202AC60025009E4F563F562F5617D
:100C0C00F560E4FFFE7D207C41AB63AA62A961A87C
:100C1C00601201061203638E348F35E4FFFEFDFC77
:100C2C00AB5FAA5EA95DA85C1202AC60025009E43D
:100C3C00F55FF55EF55DF55CE4FFFE7D207C41AB78
:100C4C005FAA5EA95DA85C1201061203638E368F43
:010C5C003760
:010C5D002274
:100E720012131A1212D375571C75581CE4F55975C2
:100E82005A10755B107B1E7D1D7F101208717F0A40
:100E92007E0012136212138912113B121376D2AF23
:100EA200C2C5C2977FE87E0312134E120B4C121179
:100EB200B8120C5E8F45EFF4600B120F09120C5E34
:100EC200EF654560F8E540701BE55225E02422F805
:100ED200E6FA08E6FB8546588547597DFFAF521270
:100EE200102580C7E55225E02422F8E6FA08E6FB41
:100EF200E55325E02432F8E6F55808E6F559AD53F6
:070F0200AF5212102580A47C
:10113B0043BA8075F10290FFF27403F090FFF074E4
:10114B0070F0A3E4F090FF147408F090FF54E4F0F7
:10115B0090FF10F0A304F0A3E4F0A3F090FF50F085
:0F116B00A304F0A3E4F0A3F043F58053BA7F226E
:10117A00D3EF94E8EE9403400653F5DFC297224377
:10118A00BA8090FF50E4F0A304F0E4FCFDFB7A700F
:10119A00F9F812044BE47BE87A03F9F81210F79095
:0E11AA00FF52EEF0A3EFF053BA7F43F5202280
:1012FA003F065B4F666D7D077F6F777C395E79713C
:10130A0040507438546E5073305E5C1C3876793EA7
:0411F500C2A17FC054
:0211F9008F72F3
:1011FB00E4F573C3E5739408748094805027C2A2FE
:10120B007F017E00121362E57230E004D2A38002EC
:10121B00C2A3E572C313F572D2A27F017E00121333
:05122B0062057380CE96
:01123000229B
:10123100E4F55CD2A3F55BC3E55B9408748094800C
:101241005022E55CC313F55CC2A27F017E0012133C
:101251006230A303435C80D2A27F017E001213623D
:06126100055B80D3AF5CC9
:011267002264
:101334008F71C2A17F017E00121362AF711211F985
:0A1344007F017E00121362D2A12285
:100C5E00E4F558F559755AFFC2A17F01FE121362D1
:100C6E007F421211F97F647E0012134EE4F559C3D0
:100C7E00E559940474809480500E121231745425E8
:100C8E0059F8A607055980E7D2A1AF547E00EF644C
:100C9E00047005F55A020D68EF64404E7006755AE1
:100CAE0001020D68AF557E00EF64047006755A029E
:100CBE00020D68EF64404E7006755A03020D68AF60
:100CCE00567E00EF64047006755A04020D68EF64D8
:100CDE00404E7006755A05020D68AF577E00EF64E0
:100CEE00047005755A068072EF64404E7005755A91
:100CFE00078067AF547E00EF64027005755A088056
:100D0E0059EF64204E7005755A09804EAF557E001E
:100D1E00EF64027005755A0A8040EF64204E70052C
:100D2E00755A0B8035AF567E00EF64027005755A0A
:100D3E000C8027EF64204E7005755A0D801CAF573E
:100D4E007E00EF64027005755A0E800EEF64204E21
:0C0D5E007005755A0F8003755AFFAF5ADC
:010D6A002266
:1012D3007F8A1213347F401213341211F5E4F5544C
:1012E300C3E55494107480948050097FFF1211F960
:0612F300055480ECD2A1BD
:0112F90022D2
:10087100855B64855A65855966A958AE57E56590CB
:1008810012FA93540125E0FCE5649354012CFCE534
:100891006693540125E025E02CFCE99354013333A0
:1008A1003354F82CFCEE935401C454F02CFCEB931C
:1008B1005401C43354E02CFCED935401C43333543C
:1008C100C02CFCEF935401C433333354802CF55CBA
:1008D100E564935402C313FCE5659354022CFCE5D3
:1008E1006693540225E02CFCE993540225E025E0AF
:1008F1002CFCEE93540233333354F82CFCEB935419
:1009010002C454F02CFCED935402C43354E02CFC8B
:10091100EF935402C4333354C02CF55DE565935411
:1009210004C313FCE5649354041313543F2CFCE5F6
:10093100669354042CFCE993540425E02CFCEE93BB
:10094100540425E025E02CFCEB9354043333335459
:10095100F82CFCED935404C454F02CFCEF93540494
:10096100C43354E02CF55EE5659354081313543FEA
:10097100FCE564935408131313541F2CFCE5669390
:100981005408C3132CFCE99354082CFCEE9354082F
:1009910025E02CFCEB93540825E025E02CFCED939D
:1009A100540833333354F82CFCEF935408C454F0F7
:1009B1002CF55FE565935410131313541FFCE56484
:1009C100935410C4540F2CFCE56693541013135424
:1009D1003F2CFCE9935410C3132CFCEE9354102CC0
:1009E100FCEB93541025E02CFCED93541025E025ED
:1009F100E02CFCEF93541033333354F82CF560E5BD
:100A010065935420C4540FFCE564935420C41354DB
:100A1100072CFCE566935420131313541F2CFCE997
:100A21009354201313543F2CFCEE935420C3132CE6
:100A3100FCEB9354202CFCED93542025E02CFCEF8F
:100A410093542025E025E02CF561E565935440C4DD
:100A5100135407FCE564935440C4131354032CFC52
:100A6100E566935440C4540F2CFCE993544013138E
:100A710013541F2CFCEE9354401313543F2CFCEBE6
:100A8100935440C3132CFCED9354402CFCEF93542E
:100A91004025E02CF562E565935480C4131354039B
:100AA100FCE564935480C413131354012CFCE566D4
:100AB100935480C41354072CFCAA01EA935480FA7E
:100AC100C4540F2CFCEE935480131313541F2CFEAB
:100AD100EB935480FC1313543F2EFEED935480FD91
:100AE100C3132EFEEF9354802EF5637F88121334C7
:100AF1007F401213341211F5AF5C1211F97F80128D
:100B010011F9AF5D1211F9E4FF1211F9AF5E121183
:100B1100F9E4FF1211F9AF5F1211F9E4FF1211F9B3
:100B2100AF601211F9E4FF1211F9AF611211F9E48A
:100B3100FF1211F9AF621211F9E4FF1211F9AF635B
:0A0B41001211F9E4FF1211F9D2A11C
:010B4B002287
:1005760085656E85646F856370A962AE61E56F906F
:1005860012FA934480540125E0FCE56E9354012C45
:10059600FCE57093540125E025E02CFCE993540119
:1005A60033333354F82CFCEE935401C454F02CFC32
:1005B600EB9344805401C43354E02CFCED93540176
:1005C600C4333354C02CFCEF935401C43333335437
:1005D600802CF566E56E935402C313FCE56F9344D5
:1005E6008054022CFCE57093540225E02CFCE99320
:1005F600540225E025E02CFCEE93540233333354A9
:10060600F82CFCEB9344805402C454F02CFCED937C
:100616005402C43354E02CFCEF935402C4333354D5
:10062600C02CF567E56F9344805404C313FCE56E54
:100636009354041313543F2CFCE5709354042CFC80
:10064600E993540425E02CFCEE93540425E025E0C0
:100656002CFCEB934480540433333354F82CFCEDD8
:10066600935404C454F02CFCEF935404C43354E064
:100676002CF568E56F93448054081313543FFCE54A
:100686006E935408131313541F2CFCE570935408EF
:10069600C3132CFCE99354082CFCEE93540825E074
:1006A6002CFCEB934480540825E025E02CFCED93CC
:1006B600540833333354F82CFCEF935408C454F0E5
:1006C6002CF569E56F9344805410131313541FFCE3
:1006D600E56E935410C4540F2CFCE570935410131C
:1006E60013543F2CFCE9935410C3132CFCEE935483
:1006F600102CFCEB934480541025E02CFCED935415
:100706001025E025E02CFCEF93541033333354F8D6
:100716002CF56AE56F9344805420C4540FFCE56EB3
:10072600935420C41354072CFCE5709354201313E0
:1007360013541F2CFCE99354201313543F2CFCEE46
:10074600935420C3132CFCEB93448054202CFCEDD3
:1007560093542025E02CFCEF93542025E025E02C33
:10076600F56BE56F9344805440C4135407FCE56E63
:10077600935440C4131354032CFCE570935440C4A3
:10078600540F2CFCE9935440131313541F2CFCEE06
:100796009354401313543F2CFCEB9344805440C3B2
:1007A600132CFCED9354402CFCEF93544025E02C85
:1007B600F56CE56F9344805480C413135403FCE531
:1007C6006E935480C413131354012CFCE570935498
:1007D60080C41354072CFCAA01EA935480FAC4542B
:1007E6000F2CFCEE935480131313541F2CFEEB9323
:1007F60044805480FC1313543F2EFEED935480FD29
:10080600C3132EFEEF9354802EF56D7F881213349A
:100816007F401213341211F5AF661211F97F801260
:1008260011F9AF671211F9E4FF1211F9AF6812114D
:10083600F9E4FF1211F9AF691211F9E4FF1211F987
:10084600AF6A1211F9E4FF1211F9AF6B1211F9E454
:10085600FF1211F9AF6C1211F9E4FF1211F9AF6D25
:0A0866001211F9E4FF1211F9D2A1FA
:010870002265
:10000E000203CFE86480F8E933E83360110460F04E
:10001E00ED33EC337009E8FCE9FDEAFEEBFF220458
:10002E0060DED3EB9FEA9EE99DE8C2E78CF0C2F753
:10003E0095F0400CE8CCF8E9CDF9EACEFAEBCFFB1F
:10004E0012039A85D0F05804700320D5B3E80470DB
:10005E00075002B2D50203D992D5EC0460F7E4CC76
:10006E00C0E0C398F8603B94186008400DD0E0FBE8
:10007E000203B1E4FBFAC9FC8028E830E406E4C9C7
:10008E00FBE4CAFCE830E305E4C9CACBFCE854073C
:10009E006010F8C3E913F9EA13FAEB13FBEC13FC47
:1000AE00D8F130F52FC3E49CFCEF9BFFEE9AFEEDEA
:1000BE0099FDD0E0FBEF4E4D4C701222DB03020394
:1000CE00D6EC2CFCEF33FFEE33FEED33FDED30E7D7
:1000DE00EB0203B1EF2BFFEE3AFEED39FDD0E0FB64
:1000EE0050130BBB00030203D9ED13FDEE13FEEF0D
:0800FE0013FFEC13FC0203B137
:10010600EC4D6011E8497017ED33EC3304600DE4F3
:10011600FCFFFEFD22E933E8330470F80203CF1238
:10012600039A58046009E4CC248150062850090239
:1001360003D92840030203D6C0E0EB4A7044B980D5
:1001460006D0E0FB0203C5EF4E701CBD8008EBFF36
:10015600EAFEE9FD80EBE98DF0A4FEE5F00201EF91
:10016600E9CDF9EAFEEBFFEF89F0A4FCE5F0CE89D4
:10017600F0A42EFFE435F0CD89F0A42DFEE435F091
:100186008067EF4E7005BD80D780C3EF8BF0A4ACBF
:10019600F0EE8BF0A42CFCE435F0F8EF8AF0A42CFA
:1001A600E5F038FCE433CB8DF0A42CFCE5F03BF80D
:1001B600EE8AF0A42CFCE5F038F8E433CF89F0A4FD
:1001C6002CFCE5F038CF3400CE89F0A42FFFE5F003
:1001D6003EFEE433C98DF0A42EFEE5F039CD8AF05B
:1001E600A42FFFE5F03EFEE43DFD33D0E0FB5007D3
:1001F6000BBB000F0203D9EC2CFCEF33FFEE33FEF2
:06020600ED33FD0203B11F
:10020C000203D9EC5D046005E8590470030203CFC6
:10021C0012039A580460F6EC4860F2EC7004FDFE90
:10022C00FF22C860DB2481C85009C39860025006C5
:10023C000203D69850CAF582E9294B4A7005AB8265
:10024C000203C575F0007C1A7880C3EF9BEE9AED23
:10025C0099400DC3EF9BFFEE9AFEED99FDE842F03D
:10026C00DC23ACF0D0E0FFD0E0FED0E0FDAB822090
:10027C00E7101BEB60BAEC2CFCEF33FFEE33FEED1A
:10028C0033FD0203B1E803F830E705C0F075F00068
:10029C00EF2FFFEE33FEED33FD40B830E7C280AAFE
:1002AC0074F8CC6480CCC86480C8F58204604FC3F9
:1002BC00EB9FF5F0EA9E42F0E99D42F0E89C45F098
:1002CC00603C501DE5825FFFE582D313CB5BCBF422
:1002DC002B5582FB50280ABA002409B9002008804B
:1002EC001DE5825BFBE582D313CF5FCFF4C3132FE5
:1002FC005582FF50090EBE00050DBD00010CC3EB6D
:10030C009FF5F0EA9E42F0E99D42F0E89C45F060D2
:09031C0007CC4820E701B3EC22F4
:1003250075F020800E75F010800575F0087D007E53
:10033500007F003392D530D50312049AEC33401078
:10034500EF33FFEE33FEED33FDEC33FCD5F0ED225C
:0E035500E5F0247EA2D513CC92E7CDCEFF2298
:10036300EDD2E7CD33EC3392D524814006E4FFFE92
:10037300FDFC22FCE4CFCECDCC24E0501174FF80F1
:10038300EDC3CC13CCCD13CDCE13CECF13CF04708E
:07039300F030D5DE02049AF0
:10039A00E9D2E7C933E833F892D5EDD2E7CD33ECA9
:0703AA0033FC5002B2D52222
:1003B100EC30E7100FBF000C0EBE00080DBD0004AD
:1003C1000BEB6014A2D5EB13FCED92E7FD2274FF59
:1003D100FCFDFEFF22E480F8A2D574FF13FC7D80B2
:0303E100E480EFC6
:03000000020F9953
:0C0F9900787FE4F6D8FD758173020FE04C
:1003E400EF8DF0A4A8F0CF8CF0A428CE8DF0A42E2D
:0203F400FE22E7
:1003F600BC000BBE0029EF8DF084FFADF022E4CCEB
:10040600F875F008EF2FFFEE33FEEC33FCEE9DECB3
:10041600984005FCEE9DFE0FD5F0E9E4CEFD22EDF9
:10042600F8F5F0EE8420D21CFEADF075F008EF2F43
:10043600FFED33FD4007985006D5F0F222C398FD34
:050446000FD5F0EA22D1
:10044B00E88FF0A4CC8BF0A42CFCE98EF0A42CFC50
:10045B008AF0EDA42CFCEA8EF0A4CDA8F08BF0A4CE
:10046B002DCC3825F0FDE98FF0A42CCD35F0FCEB2D
:10047B008EF0A4FEA9F0EB8FF0A4CFC5F02ECD39F2
:0F048B00FEE43CFCEAA42DCE35F0FDE43CFC225F
:1010F700C2D5E830E70FB2D5E4C39BFBE49AFAE424
:1011070099F9E498F8EC30E717B2D512112D1204CB
:10111700E4E4C39BFBE49AFAE499F9E498F88003C2
:101127001204E430D50DE4C39FFFE49EFEE49DFD69
:04113700E49CFC2216
:0E049A00C3E49FFFE49EFEE49DFDE49CFC2273
:100FA500020E72E493A3F8E493A34003F68001F2E2
:100FB50008DFF48029E493A3F85407240CC8C3334D
:100FC500C4540F4420C8834004F456800146F6DF1C
:100FD500E4800B0102040810204080901268E47E32
:100FE500019360BCA3FF543F30E509541FFEE49311
:100FF500A360010ECF54C025E060A840B8E493A3D8
:10100500FAE493A3F8E493A3C8C582C8CAC583CA02
:10101500F0A3C8C582C8CAC583CADFE9DEE780BEBA
:01129D000050
:1004A80075F008758200EF2FFFEE33FECD33CDCC0B
:1004B80033CCC58233C5829BED9AEC99E58298408E
:1004C8000CF582EE9BFEED9AFDEC99FC0FD5F0D66B
:1004D800E4CEFBE4CDFAE4CCF9A88222B800C1B995
:1004E8000059BA002DEC8BF084CFCECDFCE5F0CBD3
:1004F800F97818EF2FFFEE33FEED33FDEC33FCEB0C
:1005080033FB10D703994004EB99FB0FD8E5E4F9C6
:10051800FA227818EF2FFFEE33FEED33FDEC33FCB3
:10052800C933C910D7059BE99A4007EC9BFCE99AA7
:10053800F90FD8E0E4C9FAE4CCFB2275F010EF2FEC
:10054800FFEE33FEED33FDCC33CCC833C810D707EC
:100558009BEC9AE899400AED9BFDEC9AFCE899F827
:0E0568000FD5F0DAE4CDFBE4CCFAE4C8F922BA
:00000001FF
